:100000009EC10000CDC10000CBC10000C9C10000ED
:10001000C7C10000C5C10000C3C10000C1C10000CC
:10002000BFC100000C9410410C9410410C9410417D
:10003000B7C10000B5C10000B3C10000B1C10000EC
:10004000AFC10000ADC10000ABC10000A9C10000FC
:10005000A7C10000A5C10000A3C100000C94C640C8
:100060009FC100000C9490400C94664099C1000020
:1000700097C1000095C1000093C1000091C100002C
:100080008FC100008DC100008BC1000089C100003C
:1000900087C1000085C1000083C1000081C100004C
:1000A0007FC100007DC100007BC1000079C100005C
:1000B00077C1000075C1000073C1000071C100006C
:1000C0006FC100006DC100006BC1000069C100007C
:1000D00067C1000065C100000C9430400C940640DC
:1000E0005FC100004E414E494E495459494E46CDDC
:1000F000CCCC3D0AD7233C17B7D13877CC2B3295DF
:1001000095E6241FB14F0A000020410000C84200BC
:10011000401C4620BCBE4CCA1B0E5AAEC59D740086
:10012000407A10F35A00A0724E18090010A5D4E8C6
:100130000000E87648170000E40B54020000CA9A59
:100140003B000000E1F505000080969800000040AB
:10015000420F000000A086010000001027000000F0
:1001600000E803000000006400000000000A000036
:100170000000000100000000002C76D888DC674FEA
:100180000823DFC1DFAE59E1B1B796E5E3E453C61A
:100190003AE651997696E8E6C28426EB898C9B6212
:1001A000ED407C6FFCEFBC9C9F40F2BAA56FA5F4BC
:1001B00090055A2AF75C936B6CF9676DC11BFCE0E4
:1001C000E40D47FEF520E6B500D0ED902E03009437
:1001D0003577050080841E080000204E0A000000CC
:1001E000C80C333333330F986E12831141EF8D21D6
:1001F00014893BE65516CFFEE6DB18D1844B381B3D
:10020000F77C1D901DA4BBE424203284725E228101
:1002100000C9F124ECA1E53D2700002200250028BB
:10022000002B002E003100340002010000050108FF
:10023000010B01000020002300260029002C002FC4
:100240000032000001000003010601090100000A5C
:100250000B02090C0D0E080703040100000000004A
:10026000000000000000000000000000000000008E
:10027000000000000000000000121110000000004B
:10028000000000000000000000000000000000006E
:1002900000000000002100240027002A002D00306B
:1002A00000330001010000040107010A01010210EE
:1002B0002020080810204010204080020102010880
:1002C0000402010102040810204080804020100830
:1002D0000402018004020180402010080402010889
:1002E00004020101020408102040800102040810E9
:1002F00020408005050505070508080808020202D8
:10030000020A0A08080404040401010101010101B0
:10031000010303030303030303040707070C0C0C87
:100320000C0C0C0C0C02020202060606060606065F
:10033000060B0B0B0B0B0B0B0B001A411754112464
:100340001FBECFEFD1E2DEBFCDBF00E00CBF29E181
:10035000A4E4BEE001C01D92A734B207E1F71EE09D
:10036000A0E0B2E0EAEBF1EC00E00BBF02C00790C6
:100370000D92A434B107D9F711E0CEE9D1E000E045
:1003800006C021970109802FFE010E94935BCD39A1
:10039000D10780E00807A9F70E94DF4A0C94CC60DF
:1003A0002FCECF92DF92EF92FF92CF93DF93EC01AB
:1003B0006A017B01E889F98982E08083C11481EEBA
:1003C000D806E104F104A1F060E079E08DE390E06B
:1003D000A70196010E94555B21503109410951093D
:1003E0005695479537952795211580E1380798F060
:1003F000E889F989108260E874E88EE190E0A7014D
:1004000096010E94555B21503109410951095695C9
:10041000479537952795EC85FD853083EE85FF85DB
:100420002083188EEC89FD8986E08083EA89FB8928
:10043000808180618083EA89FB89808188608083F4
:10044000EA89FB89808180688083EA89FB898081D1
:100450008F7D8083DF91CF91FF90EF90DF90CF90E1
:10046000089508950895AF92BF92CF92DF92EF92D0
:10047000FF920F931F93CF93DF936C017B018B014E
:10048000040F151FEB015E01AE18BF08C017D1079E
:1004900059F06991D601ED91FC910190F081E02D28
:1004A000C6011995892B79F7C501DF91CF911F916D
:1004B0000F91FF90EF90DF90CF90BF90AF90089595
:1004C000FC01538D448D252F30E0842F90E0821B5A
:1004D000930B541710F0CF96089501970895FC01DF
:1004E000918D828D981761F0A28DAE0FBF2FB11D37
:1004F0005D968C91928D9F5F9F73928F90E008958F
:100500008FEF9FEF0895FC01918D828D981731F048
:10051000828DE80FF11D858D90E008958FEF9FEF9C
:100520000895FC01918D228D892F90E0805C9F4F72
:10053000821B91098F739927089587E19FE0F1DF6E
:1005400021E0892B09F420E0822F089584EB9FE0BD
:10055000E8DF21E0892B09F420E0822F0895FC01D7
:10056000A48DA80FB92FB11DA35ABF4F2C91848D14
:1005700090E001968F739927848FA689B7892C9371
:10058000A089B1898C91837080648C93938D848DC4
:10059000981306C00288F389E02D80818F7D8083C7
:1005A0000895EF92FF920F931F93CF93DF93EC0187
:1005B00081E0888F9B8D8C8D98131AC0E889F9890A
:1005C000808185FF15C09FB7F894EE89FF8960830D
:1005D000E889F98980818370806480839FBF81E08E
:1005E00090E0DF91CF911F910F91FF90EF900895D0
:1005F000F62E0B8D10E00F5F1F4F0F731127E02EAB
:100600008C8D8E110BC00FB607FCFACFE889F989E3
:10061000808185FFF5CFCE01A2DFF2CFEB8DEC0F0D
:10062000FD2FF11DE35AFF4FF0829FB7F8940B8F17
:10063000EA89FB8980818062D0CF6FEF87E19FE0FC
:10064000B0CFCF93DF93EC01888D8823B1F0AA89D6
:10065000BB89E889F9898C9185FD03C0808186FD7D
:100660000CC00FB607FCF7CF8C9185FFF2CF8081CD
:1006700085FFEDCFCE0173DFEACFDF91CF910895F3
:1006800080E090E0892B21F061DF81110E94000061
:1006900080E090E0892B49F080E090E0892B29F000
:1006A0000E94000081110E94000080E090E0892BF0
:1006B00049F080E090E0892B29F00E940000811130
:1006C0000E94000080E090E0892B21F036DF81114C
:1006D0000C94000008958150823108F05AC0E82F30
:1006E000F0E08827E958FC4F8F4F0C94935B9703F9
:1006F0009B0389038F039303C9039E03A403A803E9
:10070000AE03B203B603BC03C003C903C403CA03E8
:10071000CE03809180008F77809380000895809130
:1007200080008F7DF9CF80918000877FF5CF84B5E1
:100730008F7784BD089584B58F7DFBCF8091B00005
:100740008F778093B00008958091B0008F7DF9CFAE
:10075000809190008F778093900008958091900011
:100760008F7DF9CF80919000877FF5CF8091A00099
:100770008F778093A00008958091A0008F7DF9CF9E
:100780008091A000877FF5CF809120018F778093A3
:1007900020010895809120018F7DF9CF8091200163
:1007A000877FF5CFCF93DF93282F30E0F901E35B0C
:1007B000FD4F8491F901E355FD4FD491F901ED50BE
:1007C000FD4FC491CC2399F0811185DFEC2FF0E02F
:1007D000EE0FFF1FED5CFD4FA591B491EC91ED2361
:1007E00081E090E009F480E0DF91CF91089580E00E
:1007F00090E0FACF1F93CF93DF93282F30E0F901D9
:10080000E35BFD4F8491F901E355FD4FD491F9016C
:10081000ED50FD4FC491CC23A1F0162F81115BDF69
:10082000EC2FF0E0EE0FFF1FE75EFD4FA591B491B6
:100830008FB7F894EC91111108C0D095DE23DC93AA
:100840008FBFDF91CF911F910895DE2BF8CFCF930B
:10085000DF9390E0FC01E355FD4F24918D509D4FB7
:10086000FC0184918823D1F090E0880F991FFC014E
:10087000ED56FD4FA591B491FC01E75EFD4FC5918A
:10088000D491623071F49FB7F8943C91822F809597
:1008900083238C93E8812E2B28839FBFDF91CF91F8
:1008A00008958FB7F894EC912E2B2C938FBFF6CF31
:1008B0003FB7F8948091A40E9091A50EA091A60E3A
:1008C000B091A70E26B5A89B05C02F3F19F0019641
:1008D000A11DB11D3FBFBA2FA92F982F8827BC019A
:1008E000CD01620F711D811D911D42E0660F771FC2
:1008F000881F991F4A95D1F708958F929F92AF92C2
:10090000BF92CF92DF92EF92FF924B015C01D0DF5A
:100910006B017C01CDDF6C197D098E099F09683E52
:10092000734081059105B0F321E0821A9108A10876
:10093000B10888EEC80E83E0D81EE11CF11C8114BA
:100940009104A104B10431F7FF90EF90DF90CF90B4
:10095000BF90AF909F908F9008952FB7F8946091BB
:10096000A00E7091A10E8091A20E9091A30E2FBFA8
:1009700008958EBD0DB407FEFDCF08958FEF8EBD97
:100980000DB407FEFDCF8EB508950F931F93CF933F
:10099000DF93EC01E2DF8B01F1DF8F3F61F0DDDF00
:1009A000601B710BC617D707B8F780E0DF91CF91B6
:1009B0001F910F91089581E0F9CFCF93DF93FC0150
:1009C0002581222351F0EC010380F481E02D61E0C8
:1009D000828110DF8FEFCDDF1D82DF91CF910895EF
:1009E000EF92FF920F931F93CF93DF93EC017B0164
:1009F000B4DF8B01C3DF8E838F3F91F4AEDF601BCA
:100A0000710B693E7340B0F385E58A83CE01D5DF73
:100A100080E0DF91CF911F910F91FF90EF900895AB
:100A20008E3F11F080E5F1CF8FEF8EBDF701D7013A
:100A3000A150BE4F9FEF0DB407FEFDCF8EB59EBDFA
:100A40008193AE17BF07B9F70DB407FEFDCF8EB582
:100A50008C931E8293DF92DF81E0DBCF0F931F9395
:100A6000CF93DF938C01862FEA0183DF88818EBDCF
:100A70008981FE013296DE5F0DB407FEFDCF8EBD8B
:100A8000EC17FD0711F08191F7CF0DB407FEFDCFF4
:100A90008FEF6FDF8FEF6DDF71DFF80186838F716E
:100AA000853051F087E58283C80187DF80E0DF91E0
:100AB000CF911F910F91089581E0F9CFCF93DF93EC
:100AC000FC01258121110FC0EC010380F481E02D90
:100AD000908181819CBD8DBDEB81FC8160E0828134
:100AE00089DE81E08D83DF91CF910895DF92EF92CF
:100AF000FF920F931F93CF93DF938C01C62FD22FBA
:100B0000F32EE42ED52EFC018581811102C0C8018F
:100B1000D5DFCC2319F08CE291E037DF8C2F806495
:100B200028DF8D2D26DF8E2D24DF8F2D22DF8D2FC8
:100B300020DF87E8C11101C085E91BDF1FDFCBE0A3
:100B40001DDFF801868387FF02C0C150C9F7DF911E
:100B5000CF911F910F91FF90EF90DF900895CF926A
:100B6000DF92EF92FF920F931F93CF93DF93EC01ED
:100B700079018F81833039F089E0440F551F661F5A
:100B8000771F8A95D1F79A01AB0169E1CE01AEDFFB
:100B9000D12CC12C8823E1F083E38A83CE010DDFC1
:100BA000CE010BDF10E0812FDF91CF911F910F91CC
:100BB000FF90EF90DF90CF900895A7016CEFCE01EA
:100BC0004DDF882359F38FEFC81AD80A8EEFF81A31
:100BD00080ED97E0C016D10629F0D7DE8111EDCF68
:100BE0008BE5DBCFD2DE182F882329F08DEFC1DE15
:100BF000CE01E3DED8CF86E58A83FACF0F931F9329
:100C0000CF93DF93EC0189018F81833039F089E044
:100C1000440F551F661F771F8A95D1F79A01AB01C4
:100C200068E1CE0163DF882331F082E38A83CE015D
:100C3000C4DE10E01CC0A8016EEFCE010FDF8823D8
:100C4000B1F380ED97E0A1DE182F8AE5112371F34F
:100C500020E030E0A9016DE0CE0148DF882311F0EB
:100C600089E2E4CF8BDE8111FBCFCE01A6DE812F9E
:100C7000DF91CF911F910F910895CF92DF92EF9264
:100C8000FF920F931F93CF93DF93EC0179018F8134
:100C9000833039F089E0440F551F661F771F8A950E
:100CA000D1F79A01AB0162E1CE0120DFD12CC12C3A
:100CB000882371F081E38A83CE017FDE80E0DF91BB
:100CC000CF911F910F91FF90EF90DF90CF900895FB
:100CD0000C151D0559F0B701CE0182DE882379F38A
:100CE0008FEFC81AD80A8EEFF81AF2CF20E030E062
:100CF000A9016CE0CE01FADE882311F088E2DBCF97
:100D0000CE015BDE81E0DBCF0F931F93CF93DF93A8
:100D1000EC0189018F81833039F089E0440F551F40
:100D2000661F771F8A95D1F79A01AB0161E1CE0169
:100D3000DDDE882331F080E38A83CE013EDE10E0E1
:100D400008C0B801CE014CDE182F8823B1F3CE01C4
:100D500034DE812FDF91CF911F910F910895DC0137
:100D6000ED91FC910480F581E02D1994EF92FF92B2
:100D70001F93CF93DF93FC01208111E020FF13C06C
:100D8000EC017C01F7E0EF0EF11C4B815C816D8181
:100D90007E81E981FA81970180819181E0DF182FBE
:100DA000811108C010E0812FDF91CF911F91FF903A
:100DB000EF900895E981FA818681823021F088815F
:100DC0008E7F8883F0CF888181FFF9CF4B815C8152
:100DD0006D817E8185859685A785B089480F591FCD
:100DE0006A1F7B1F970180819181B9DF8111E7CF55
:100DF000D9CFCF92DF92EF92FF921F93CF93DF93E1
:100E0000EC016A017B01122F8B819C81AD81BE8137
:100E10008C159D05AE05BF05A9F0CE01A7DF811198
:100E20000AC090E080E0DF91CF911F91FF90EF909A
:100E3000DF90CF90089512FF0CC01882CB82DC8225
:100E4000ED82FE8213708881182B1883CE010796DD
:100E5000EACFE981FA8180819181DC01ED91FC91F9
:100E60000190F081E02D9E01295F3F4FB701A6015F
:100E700019958111E2CFD5CF8F929F92AF92BF92F9
:100E8000CF92DF92EF92FF92CF931092EB1641E058
:100E900050E060E070E04093EF165093F0166093DE
:100EA000F1167093F21626EE36E13093091720936F
:100EB0000817109207174FEF5FEFBA0140930A1718
:100EC00050930B1760930C1770930D17882309F438
:100ED00051C020E040E050E0BA0187E097E189DFAF
:100EE000009759F480E0CF91FF90EF90DF90CF9082
:100EF000BF90AF909F908F900895FC01E254FE4FF9
:100F000020812F7779F78A539E4FFC01C080D180D2
:100F1000E280F380C114D104E104F10419F320E06C
:100F2000B701A60187E097E164DFFC01892BD1F2CC
:100F30008385948581159240A9F6A0898FEF8A0F49
:100F4000823080F686859785892B61F2A093EC1616
:100F500095859093E8168FEF890F8093E916C0E08E
:100F600081E0981769F0CF5FC93041F488E0809341
:100F7000EA16B8CFC12CD12C7601D1CF880FF1CF92
:100F8000C093EA162689378950E040E021153105E3
:100F900021F424A135A146A157A12093F316309343
:100FA000F4164093F5165093F616868597854601FC
:100FB0005701880E991EA11CB11C8092FB169092BD
:100FC000FC16A092FD16B092FE168189928990932C
:100FD000EE168093ED16B0E00E94CF59DC01CB01F4
:100FE000880D991DAA1DBB1D8093031790930417AC
:100FF000A0930517B09306172189328945E0220F87
:10100000331F4A95E1F721503E4F232F3327269572
:10101000820F931FA11DB11D8093F7169093F816B0
:10102000A093F916B093FA1683889488B12CA12C5A
:101030008114910421F480A091A0A2A0B3A0C81AA9
:10104000D90AEA0AFB0AC80CD91CEA1CFB1C04C01A
:10105000F694E794D794C794CA95D2F7D701C601FE
:101060000196A11DB11D8093FF1690930017A093C8
:101070000117B093021785EFC8168FE0D806E10478
:10108000F10428F48CE08093EB1681E02CCF80E112
:1010900025EFC2162FEFD206E104F104A0F384A5D8
:1010A00095A5A6A5B7A58093031790930417A093C1
:1010B0000517B093061780E2E6CF4F925F926F92CA
:1010C0007F928F929F92AF92BF92CF92DF92EF92D8
:1010D000FF920F931F93CF93DF9300D000D0CDB733
:1010E000DEB79A8389836A017B0148015901DC01DB
:1010F00015968C911597803209F042C055968D91C6
:101100009D910D90BC91A02DE7E076956795579540
:101110004795EA95D1F7480F591F6A1F7B1F23E0B7
:1011200089819A81819665DE0097C1F480E02696D8
:101130000FB6F894DEBF0FBECDBFDF91CF911F91E8
:101140000F91FF90EF90DF90CF90BF90AF909F9066
:101150008F907F906F905F904F900895E894C7F8BC
:10116000DD24EE24FF24CC0CDD1CCC0CDD1C8C0D0E
:101170009D1DFC0180829182A282B38281E0D7CF43
:101180008031E9F4A981BA8155964D915D916D91B7
:101190007C9158974D0D511D611D711D23E0CD01AE
:1011A000819627DE009711F2DD24EE24FF24CC0C7B
:1011B000DD1C8C0D9D1DFC0111830083DFCF8C3065
:1011C00009F0B4CF8A0116950795040F151FC801C1
:1011D000892F99278695A981BA8155964D905D9062
:1011E0006D907C905897480E591E611C711C919609
:1011F000BE83AD8323E0B301A201CD01FADD0097E8
:1012000009F494CF1170282DFC01E00FF11FB701F4
:10121000A601417055276627772749835A836B8338
:101220007C83C0FE07C020812F7060E1869EA001F4
:101230001124242B20830F5F1F4F011572E0170725
:1012400079F4B301A2014F5F5F4F6F4F7F4F23E0EF
:101250008D819E81CEDD009709F468CF10E000E01B
:1012600024E0B694A794979487942A95D1F7282DD3
:10127000FC01E00FF11F89819A81AB81BC81892B30
:101280008A2B8B2B31F42081207F82948FE088225F
:101290002829208373CF2F923F924F925F926F92B3
:1012A0007F928F929F92AF92BF92CF92DF92EF92F6
:1012B000FF920F931F93CF93DF9342305105610547
:1012C0007105A0F48FEFDF91CF911F910F91FF90E7
:1012D000EF90DF90CF90BF90AF909F908F907F90D6
:1012E0006F905F904F903F902F900895FC01C18CBC
:1012F000D28CE38CF48CC416D506E606F70610F300
:1013000019016A017B01EC0185818032C1F5858973
:101310009689A789B08DE7E07695679557954795AB
:10132000EA95D1F7480F591F6A1F7B1F22E0CE01B3
:1013300081965FDD009731F2E894C7F8DD24EE2452
:10134000FF24CC0CDD1CCC0CDD1C8C0D9D1DFC0188
:1013500080809180A280B380FFE0BF22898D9A8D2A
:10136000AB8DBC8D88159905AA05BB0508F46FC027
:10137000F10180829182A282B38281E0A4CF803188
:10138000E1F4458956896789708D4D0D511D611DA8
:10139000711D22E0CF0181962CDD009709F492CFD8
:1013A000DD24EE24FF24CC0CDD1C8C0D9D1DFC01E6
:1013B00080809180B12CA12CD1CF8C3009F082CFCC
:1013C0008A0116950795040F151FC801892F9927C3
:1013D0008695458856886788708C480E591E611C12
:1013E000711C5F01F1E2AF0EB11C22E0B301A2015A
:1013F000C501FFDC009709F465CF1170FC01E00F17
:10140000F11F8080912C0F5F1F4F011522E0120702
:1014100071F4B301A2014F5F5F4F6F4F7F4F22E026
:10142000C501E7DC009709F44DCF10E000E0800F24
:10143000911FFC018081982AC0FE06C084E096942A
:1014400087948A95E1F7B6CFFFE09F22B3CF80E083
:101450003ACF0F931F93CF93DF93DC012C9121118F
:1014600006C081E0DF91CF911F910F910895EC01AB
:101470008A8182FF38C04C895D896E897F898E811F
:101480009F8121E08196B5DC009729F489818160F4
:10149000898380E0E7CFEC81FD81EF70FF2725E0B5
:1014A000EE0FFF1F2A95E1F7E80FF91F309771F350
:1014B0008081853E59F3888183FF08C0888D998D8E
:1014C000AA8DBB8D848F958FA68FB78F8C8D9D8DA8
:1014D000938F828F8C8D9D8DAE8DBF8DB58BA48BA0
:1014E0008A818B7F8A830E811F81C80181963EDCB1
:1014F000882361F2F80180819181DC01ED91FC91FA
:101500000280F381E02D1995882309F4BFCFA9CF7C
:101510004F925F926F927F928F929F92AF92BF9203
:10152000CF92DF92EF92FF920F931F93CF93DF93AF
:10153000EC014A015B014C845D846E847F84A88148
:10154000AA2309F485C0488959896A897B89481585
:1015500059056A057B0569F081149104A104B10461
:1015600051F41C861D861E861F86888A998AAA8A3F
:10157000BB8A81E072C0A3FF58C0088D198D2A8DE7
:101580003B8D081519052A053B0508F461C0EE815D
:10159000FF81848190E009968A019B010150110925
:1015A00021093109082E04C036952795179507950E
:1015B0000A94D2F775016401B1E0CB1AD108E108B1
:1015C000F10804C0F694E794D794C7948A95D2F7AB
:1015D000C016D106E206F30628F0452B462B472B12
:1015E00009F051C0A6FF4AC0858D968DA78DB0A188
:1015F0008C879D87AE87BF878E01045F1F4FC11404
:10160000D104E104F10409F4B0CF4C855D856E8509
:101610007F8598018E819F813EDE91E0C91AD108B5
:10162000E108F10818165CF313C0A5FFB0CFEE81F6
:10163000FF818781908525E0880F991F2A95E1F722
:10164000B0E0A0E088159905AA05BB0508F08DCF8C
:101650004C865D866E867F8680E0DF91CF911F91FC
:101660000F91FF90EF90DF90CF90BF90AF909F9041
:101670008F907F906F905F904F9008958C8D9D8D8F
:10168000AE8DBF8DB5CFC01AD10AE20AF30AB4CF2E
:10169000FC01208123FF05C0408D518D628D738D2B
:1016A00037CF80E00895CF93DF93EC01D2DE18822C
:1016B000DF91CF9108953F924F925F926F927F9208
:1016C0008F929F92AF92BF92CF92DF92EF92FF9252
:1016D0000F931F93CF93DF9300D01F92CDB7DEB748
:1016E0004C01FC01828184608283A680B78044849F
:1016F000558466847784F501C184D284E384F484BC
:10170000C414D504E604F70410F011E003C073011B
:10171000620110E0FFEFCF1ADF0AEF0AFF0AF501BE
:10172000818D928DA38DB48D8C159D05AE05BF0561
:1017300038F411112AC0C184D284E384F484E5CF43
:101740004C145D046E047F0401F19E012F5F3F4F36
:10175000B701A601C5019FDD87FD17C08823D1F21F
:1017600089819A81AB81BC81892B8A2B8B2B91F645
:10177000112329F0F501C186D286E386F486F2E0D2
:10178000CF16D104E104F104C0F4312C832D0F9065
:101790000F900F900F90DF91CF911F910F91FF90BD
:1017A000EF90DF90CF90BF90AF909F908F907F9001
:1017B0006F905F904F903F900895F501818D928DCD
:1017C000A38DB48D8C159D05AE05BF05F0F20FEF0E
:1017D0001FEF2FEF3FE0B701A601C5016EDC382EE9
:1017E000882399F2411451046104710431F4F40125
:1017F000C486D586E686F786C9CFF2E04F16510437
:101800006104710410F2F501818D928DA38DB48D68
:1018100084159505A605B70508F4B7CF970186018D
:10182000B301A201C50149DC8111E1CFAECFCF9355
:10183000DF93FC012381222349F1EC0161E08481E3
:1018400006D861E08D8103D88B81843011F0883017
:10185000B1F461E08E810E94270461E08F810E94D3
:1018600027048FA58F3F91F061E00E9427046EA5A9
:1018700081E068278FA5DF91CF910C94FA03833024
:1018800011F0863071F761E08E81E9CFDF91CF9161
:101890000895CF93DF93FC0123812223A9F0EC016B
:1018A0000190F081E02D0480F581E02D60E0199534
:1018B0008FA58F3F49F061E00E9427046EA58FA598
:1018C000DF91CF910C94FA03DF91CF910895DC0161
:1018D000ED91FC911197248135814770552766273A
:1018E0007727415051096109710947305105610558
:1018F000710570F4FA018827EF57F34F8F4F0C945E
:10190000935B8C0C8E0C900C920C940C960C980C97
:1019100061E0CD01F901199465E0FBCF64E0F9CFF6
:1019200066E0F7CF62E0F5CF6AE0F3CF68E0F1CF91
:1019300069E0EFCFCF93DF93EC01CB01BA0126E052
:1019400030E040E050E00E94775B62307105810535
:10195000910589F16CF46115710581059105D1F04E
:101960006130710581059105F9F0DF91CF910895FE
:10197000643071058105910561F124F165307105CF
:101980008105910591F7E881F9810480F581E02DC9
:1019900066E006C0E881F9810480F581E02D64E00D
:1019A000CE01DF91CF911994E881F9810480F5810E
:1019B000E02D65E0F5CFE881F9810480F581E02D27
:1019C00061E0EECFE881F9810480F581E02D63E0EC
:1019D000E7CFE881F9810480F581E02D62E0E0CF76
:1019E000DC01ED91FC910480F581E02D43705527D9
:1019F00066277727423051056105710571F0433044
:101A000051056105710559F04130510561057105B8
:101A100011F065E0199466E0FDCF6AE0FBCF69E064
:101A2000F9CFCF93DF93EC01CB01BA0123E030E093
:101A300040E050E00E94775B6130710581059105BF
:101A400099F06230710581059105A9F0672B682B2B
:101A5000692BC1F4E881F9810480F581E02D64E00F
:101A6000CE01DF91CF911994E881F9810480F5814D
:101A7000E02D61E0F5CFE881F9810480F581E02D6A
:101A800062E0EECFDF91CF910895DC01ED91FC9102
:101A90000480F581E02D4370552766277727423073
:101AA00051056105710571F04330510561057105FE
:101AB00059F0413051056105710511F062E019944A
:101AC00063E0FDCF61E0FBCF60E0F9CFCF93DF9320
:101AD000EC01E881F9810480F581E02D8A8160E0E4
:101AE000811162E0CE011995E881F9810480F581C8
:101AF000E02D8A8161E0811163E0CE0119958CA50A
:101B00009DA58230910538F0880F991F880F991F85
:101B100005970197F1F7E881F9810480F581E02DBF
:101B20008A8160E0811162E0CE01DF91CF9119944A
:101B3000CF93DF93EC0120E030E0A9016C897D892F
:101B40008E899F890E94E65A18162CF4E8A9F9A9F3
:101B5000DF91CF911994EAA9FBA9FACFCF92DF9236
:101B6000EF92FF920F931F93CF93DF93DC011396B5
:101B7000CC91C43039F0C83059F1C33019F0C630B7
:101B800049F1C2E08C010C5F1F4FF12CE12CC62EF5
:101B9000D12CD1E0F8016481C6010E2C02C09595CC
:101BA00087950A94E2F780FD6D270F5F1F4F8081B4
:101BB0000E94FA03BFEFEB1AFB0AEC1658F3DF9111
:101BC000CF911F910F91FF90EF90DF90CF900895EC
:101BD000C4E0D8CFC3E0D6CFDC011396EC911397C5
:101BE000E93008F042C0F0E08827E650F24F8F4F0E
:101BF0000C94935B030E0B0E120E190E200E350E75
:101C0000270E350E2E0EED91FC9111970084F18573
:101C1000E02DCD011994ED91FC9111970284F3858B
:101C2000E02DF7CFED91FC9111970484F585E02D1F
:101C3000F0CFED91FC9111970684F785E02DE9CF67
:101C4000ED91FC9111970088F189E02DE2CFED91A3
:101C5000FC9111970288F389E02DDBCFED91FC9187
:101C600011970488F589E02DD4CF08954F925F92A3
:101C70006F927F92AF92BF92CF92DF92EF92FF92DC
:101C80000F931F93CF93DF93EC015A018B019A01BD
:101C9000AB016C897D898E899F890E94B358882306
:101CA00079F1488C598C6A8C7B8C73016201F7FA4C
:101CB000F094F7F8F094A7019601B501C8010E94CD
:101CC000B35887FD0CC0A3019201B501C8010E9461
:101CD000E65A73016201181614F06501780120E0DC
:101CE00030E0A901C701B6010E94B358811117C0A5
:101CF0001CA21DA21EA21FA2CC8ADD8AEE8AFF8A28
:101D0000DF91CF911F910F91FF90EF90DF90CF90D7
:101D1000BF90AF907F906F905F904F900895A70114
:101D2000960160E074E284E799E40E944D5A9F773F
:101D30000E94BA5A6CA37DA38EA39FA311E020E05A
:101D400030E0A901C701B6010E94E65A18160CF04E
:101D500010E01A83D1CF4F925F926F927F928F9251
:101D60009F92AF92BF92CF92DF92EF92FF920F932A
:101D70001F93CF93DF93EC01C888D988EA88FB884A
:101D80008C859D85AE85BF85C81AD90AEA0AFB0AEB
:101D90006C897D898E899F899B01AC010E941859AD
:101DA0004B015C016C8D7D8D8E8D9F8D9B01AC01F7
:101DB0000E94E9599B01AC01C501B4010E944D5A32
:101DC0000E94B55AC114D104E104F10409F0B1C074
:101DD00062307105810591050CF0CBC01CA21DA2DB
:101DE0001EA21FA21C8A1D8A1E8A1F8A1CAA1DAA47
:101DF0001EAA1FAADF91CF911F910F91FF90EF9024
:101E0000DF90CF90BF90AF909F908F907F906F901A
:101E10005F904F9008951016110612061306B4F441
:101E20006C157D058E059F051CF42A812111A1C02A
:101E30009B01AC0188279927DC01821B930BA40B23
:101E4000B50B8CAB9DABAEABBFAB93C00115110511
:101E50002105310509F48DC06C157D058E059F05A2
:101E60000CF087C08A81882309F483C030952095BF
:101E7000109501951F4F2F4F3F4F0CAB1DAB2EAB55
:101E80003FAB77C0011511052105310509F471C07B
:101E90008824992454018C189D08AE08BF08681541
:101EA00079058A059B050CF064C08A81811161C0A7
:101EB000DDCFCCACDDACEEACFFACA7019601C70129
:101EC000B6010E94E9592B013C01C501B4010E94F1
:101ED000B95820E030E040E850E40E94185920E072
:101EE00030E040E85FE30E94E9599B01AC01C30187
:101EF000B2010E944D5A9B01AC01C701B6010E947C
:101F0000E8593B016C01FE01E05CFF4FE080F1808D
:101F1000028113819701A8010E94E65A181614F451
:101F200073018601C701D8018CAF9DAFAEAFBFAFC3
:101F30003AC00CA91DA92EA93FA91C141D041E04FA
:101F40001F040CF468CF10161106120613060CF0CD
:101F500099CF0027112798010C191D092E093F0957
:101F600060177107820793070CF062CF2A81211155
:101F70005FCF8CA89DA8AEA8BFA881149104A1042E
:101F8000B10409F096CF88AD99ADAAADBBAD8CAFC9
:101F90009DAFAEAFBFAF81E01C141D041E041F0433
:101FA0000CF080E08A833FEF831A930AA30AB30AF6
:101FB0008CAA9DAAAEAABFAACCACDDACEEACFFAC9D
:101FC000C701B6010E94BA5A6CA37DA38EA39FA33A
:101FD000A701960160E074E284E799E40E944D5AFB
:101FE0006C8B7D8B8E8B9F8B2A81211103CF905818
:101FF0006C8B7D8B8E8B9F8BFDCECF92DF92EF9281
:10200000FF920F931F93CF93DF93EC016A017B0143
:1020100020E030E0A901CB01B6010E94B35887FF50
:1020200004C0F7FAF094F7F8F094A7019601688DD0
:10203000798D8A8D9B8D0E94B358882309F445C001
:10204000C88ED98EEA8EFB8E8E01005C1F4FA701D1
:10205000960160E074E284E799E40E944D5AF80129
:1020600060837183828393838CA99DA9AEA9BFA944
:10207000181619061A061B0644F56C897D898E8987
:102080009F899B01AC010E9418596B017C016C8DEA
:102090007D8D8E8D9F8D9B01AC010E94E9599B0126
:1020A000AC01C701B6010E944D5A0E94B55A6CABF3
:1020B0007DAB8EAB9FABCE01DF91CF911F910F9186
:1020C000FF90EF90DF90CF9046CEDF91CF911F91A0
:1020D0000F91FF90EF90DF90CF900895CF92DF9215
:1020E000EF92FF92CF93DF93FC0144A155A166A12B
:1020F00077A1452B462B472B41F480E0DF91CF9110
:10210000FF90EF90DF90CF900895EC010E9458046B
:102110006B017C0188A599A5AAA5BBA5B701A6015D
:10212000481B590B6A0B7B0B8CA19DA1AEA1BFA1D3
:10213000481759076A077B0700F38C859D85AE8594
:10214000BF852A81222399F00196A11DB11D8C879C
:102150009D87AE87BF874C855D856E857F85CE0167
:102160003BDDC8A6D9A6EAA6FBA681E0C7CF0197AA
:10217000A109B109ECCF0F931F93FC0104851585CC
:1021800026853785400F511F621F731F00891189F3
:1021900022893389401751076207730739F0408B52
:1021A000518B628B738B1F910F91D5CD1F910F9126
:1021B00008950E941D030E941D030C941D030496A4
:1021C00048C940E050E0BA01A3C90F931F93FC0136
:1021D000808183FF0FC0608D718D828D938D00890A
:1021E000118922893389601B710B820B930B1F911C
:1021F0000F91089560E070E0CB01F9CF81E0089580
:1022000090E080E008956115710551F0FB010190A7
:102210000020E9F73197AF01461B570B0C943302AE
:1022200090E080E00895EFCFBC0187E19FE0FBDF05
:102230000E941D030E941D030C941D03CF93DF9386
:10224000BC0184EB9FE0DFDFEC0142E050E063E69D
:1022500075E084EB9FE00E9433028C0F9D1FDF919D
:10226000CF9108958F929F92AF92BF92DF92EF929B
:10227000FF920F931F93CF93DF93EC017B01288193
:10228000222309F4BBC08A8180FFB8C0888899885E
:10229000AA88BB8823FF21C0888D998DAA8DBB8D0C
:1022A00088199909AA09BB0982309105A105B105D0
:1022B00018F5009709F530E020E0A901481B590BFB
:1022C000CA01DF91CF911F910F91FF90EF90DF90A6
:1022D000BF90AF909F908F90089525FF0DC0EE8125
:1022E000FF818781908535E0880F991F3A95E1F746
:1022F0008815990509F488C084011170EE81FF8169
:10230000B501A40189E076956795579547958A951B
:10231000D1F725FF27C0858D968DA78DB0A1480FD9
:10232000591F6A1F7B1F8E819F8120E081960E942A
:10233000F906009709F462C0800F911FFC018081AB
:10234000F701808388899989AA89BB890196A11D93
:10235000B11D888B998BAA8BBB8B21E030E090E07C
:1023600080E0ABCFD380D4220115110581F4D110C8
:102370000EC089288A288B2881F526FF29C0858DE3
:10238000968DA78DB0A18C879D87AE87BF87EE8184
:10239000FF814C855D856E857F85425051096109BD
:1023A0007109848104C0440F551F661F771F8A95E9
:1023B000D2F781899289A389B489840F951FA61FBA
:1023C000B71FAC01BD014D0D511D611D711DABCF7E
:1023D0008C8D9D8DAE8DBF8DD6CF4C855D856E85E8
:1023E0007F859E01245F3F4FCF010E944B0987FDEF
:1023F00005C08111CCCF8881807749F489818260C2
:1024000089838FEF9FEF5DCF30E020E0A8CF21E000
:1024100030E081E090E051CF4F925F926F927F92D7
:102420008F929F92AF92BF92CF92DF92EF92FF92E4
:102430000F931F93CF93DF931F92CDB7DEB75C014D
:102440006B014A013B01EE24E394F12C8FEF9FEFE7
:102450008701015011092701E814F90459F1BE015F
:102460006F5F7F4FC501FEDE8130910519F529812F
:102470002D3091F3F30121933F01FFEFEF1AFF0A93
:102480002A3031F78201F601E00FF11F1082C801F6
:102490000F90DF91CF911F910F91FF90EF90DF9000
:1024A000CF90BF90AF909F908F907F906F905F90F4
:1024B0004F90089597FFE7CF0FEF1FEFE8CFEF9210
:1024C000FF920F931F93CF93DF931F92CDB7DEB789
:1024D0007C01962FF70140895189628973898A01AD
:1024E0009B0185E036952795179507958A95D1F735
:1024F0000F7011F0911128C0BE016F5F7F4FC701AF
:10250000B1DE813051F090E080E00F90DF91CF910B
:102510001F910F91FF90EF900895F70180899189A5
:10252000A289B3894F96A11DB11D808B918BA28B7F
:10253000B38BF701868197818896F0E20F9F900117
:102540001124820F931FE1CF405E5F4F6F4F7F4F8B
:10255000408B518B628B738BECCFCF93DF931F92A9
:10256000CDB7DEB7BE016F5F7F4F7CDE019731F4E0
:10257000898190E00F90DF91CF9108958FEF9FEFC9
:10258000F9CF2F923F924F925F926F927F928F92EC
:102590009F92AF92BF92CF92DF92EF92FF920F93F2
:1025A0001F93CF93DF93EC015B014A01888183FF86
:1025B000C4C08A8181FFC1C083FDB6C0A40170E0A0
:1025C00060E088899989AA89BB8980959095A095B2
:1025D000B09584179507A607B70708F4AEC0740135
:1025E0001E018CE0280E311C088919892A893B8933
:1025F000E114F10409F417C18E819F81B901A8018A
:1026000039E076956795579547953A95D1F7DC016E
:102610001396DC90D4221170D1101AC04C855D85C0
:102620006E857F850115110509F02AC141155105F7
:102630006105710509F487C091010E944B0987FD6E
:102640007CC0811105C0CE0136D8882309F475C03D
:10265000EE81FF814C855D856E857F8542505109F5
:1026600061097109848104C0440F551F661F771FDB
:102670008A95D2F781899289A389B489840F951F9D
:10268000A61FB71FAC01BD014D0D511D611D711D70
:102690000115110529F4E114B2E0FB0608F06EC043
:1026A00080E092E0801B910B67018E159F0508F476
:1026B0006C010115110571F4488859886A887B8876
:1026C000888D998DAA8DBB8D25E0481659066A061E
:1026D0007B0608F421E0CF0181960E94F90600975D
:1026E00061F1A601B501800F911F0E94A95D0C0D3B
:1026F0001D1D0115124039F48E819F8181960E9423
:10270000B6068823D1F088899989AA89BB898C0D5E
:102710009D1DA11DB11D888B998BAA8BBB8BAC0C09
:10272000BD1CEC18FD0860CF488D598D6A8D7B8DDE
:10273000CE010E94880A811141CF898181608983FD
:102740008FEF9FEF84C08C8D9D8DAE8DBF8D0097D8
:10275000A105B10571F4CE010E945B0B882369F3DA
:102760008C859D85AE85BF858C8F9D8FAE8FBF8FED
:102770006FCF8C879D87AE87BF876ACF44A055A057
:1027800066A077A0E11484E0F80690F1C701892FD4
:102790009927869502810D1910E08017910708F49A
:1027A0008C016801DC2CCC24DD0C44155505660534
:1027B000770588F0400E511E611C711C44155505AB
:1027C0006605770540F411A28FEF9FEFDC0184A32B
:1027D00095A3A6A3B7A3EE81FF8180819181DC013F
:1027E000ED91FC910084F185E02D9501199589CF3B
:1027F000441555056605770541F411A28FEF9FEF4B
:10280000DC0184A395A3A6A3B7A3EE81FF81950164
:10281000808191810E94AF06882309F48ECFC12C5C
:1028200082E0D82E70CF888D998DAA8DBB8D8017B0
:102830009107A207B30738F48A81088F198F2A8F6E
:102840003B8F84608A838A8187FD14C0C401DF9135
:10285000CF911F910F91FF90EF90DF90CF90BF909D
:10286000AF909F908F907F906F905F904F903F9030
:102870002F900895CE010E94290A8111E7CF5DCFE4
:10288000FC014250510961097109848104C0440F5F
:10289000551F661F771F8A95D2F781899289A38970
:1028A000B489480F591F6A1F7B1FFACE049669CE60
:1028B000CF93DF931F92CDB7DEB7698341E050E03D
:1028C000BE016F5F7F4F5DDE0F90DF91CF91089566
:1028D0000496EECFFB0101900020E9F73197AF019C
:1028E000461B570B4ECE0F931F93CF93DF9300974A
:1028F00079F06115710561F090939B0E80939A0EAB
:102900006093990E1092980E10929C0E1092970E52
:10291000C091950ED091960ECE010197039738F194
:10292000C6E0D1E087E19FE00E949102892B09F483
:102930004FC087E19FE00E946F029C013327203740
:10294000310509F080C01092970E1092980E1092E7
:10295000940E80919A0E90919B0E892B09F470C071
:1029600081E090E09093960E8093950E31C0009197
:102970009A0E10919B0E0115110521F187E19FE040
:102980000E949102892B21F187E19FE00E946F0252
:102990009C0133272F3F310519F58091940E8F5FED
:1029A0008093940E833051F7C230D105B1F48091F9
:1029B000980E843019F481E080939C0E10929B0E47
:1029C00010929A0E1092980E1092960E1092950EEA
:1029D000DF91CF911F910F910895219779F7EBCF58
:1029E0001092940EC230D10579F4E091980E2091A6
:1029F000990E2E1718F291E09E0F9093980EE00F0B
:102A0000F12FF11D8083BACFC130D10509F0B6CFC7
:102A1000E091980E2E2F30E04091990E4150550BC9
:102A2000241735070CF0AACFEF5FE093980E200F24
:102A3000311FD9018C93E00FF12FF11D10829ECF31
:102A400083E090E08FCF2137310579F41092970E13
:102A50001092980E1092940E80919A0E90919B0E67
:102A6000892B71F382E090E07DCFE091970E2F3FAC
:102A7000310509F049C021E02E0F2093970EF0E0B8
:102A8000E357F14F80838091940E8F5F8093940E73
:102A9000833009F047CF273029F580918D0E853698
:102AA000E1F43091EF0E3830C0F480918C0E90E05C
:102AB000289FD001299FB00D1124AA54B14FEDE8F1
:102AC000FEE001900D922A95E1F701968770992713
:102AD00080938C0E3F5F3093EF0E1092970E109202
:102AE000940E20CF2430C9F7A091150FB091160F86
:102AF000109799F384E0EDE8FEE001900D928A953D
:102B0000E1F7D093140FE9CF1092940EE43040F423
:102B100091E09E0F9093970EF0E0E357F14F808382
:102B20008091970E873009F0FDCEC093970EEEE8A6
:102B3000FEE0ADE8BEE08C2F01900D928A95E1F7A2
:102B4000F1CECF92DF92EF92FF921F93CF93DF935C
:102B500000D01F92CDB7DEB719821A821B821C8269
:102B60000E94AD046B017C01CE0101969093160F7B
:102B70008093150F70E060E090E080E0B4DE10918B
:102B8000140F111118C00E94AD046C197D098E0933
:102B90009F09653671058105910560F3812F0F90BE
:102BA0000F900F900F90DF91CF911F91FF90EF90BA
:102BB000DF90CF9008951092160F1092150F10927B
:102BC000140FECCF8F929F92AF92BF92CF92DF9271
:102BD000EF92FF92CF93DF935C01EB010E94AD0473
:102BE0006B017C0110929C0E64E070E0C5017BDEFD
:102BF0004E010D2E000CAA08BB0880919C0E81117D
:102C000016C00E94AD046C197D098E099F098616B5
:102C10009706A806B90640F0209731F070E060E012
:102C200090E080E060DEE9CF86E695E007DB80910A
:102C30009C0E811110929C0EDF91CF91FF90EF902E
:102C4000DF90CF90BF90AF909F908F900895FC0140
:102C500080819181009711F00C94375C0895FC01FC
:102C600080E2DF011D928A95E9F777836683DB01B5
:102C700015968C91803121F0803239F08C3039F406
:102C800080E2808381E08283089580E4FACF80E04F
:102C900008958F929F92AF92BF92CF92DF92EF9260
:102CA000FF920F931F93CF93DF93D82FC92F1092CA
:102CB0003319109230191092351986E399E19093E7
:102CC0003219809331190E94AD046B0100913119C2
:102CD0001091321985E3F801828361E00E94270494
:102CE00061E0F80182810E94FA031FB7F894809195
:102CF000130F811127C0E8E2F3E08491E2EEF2E0E5
:102D00009491E82FF0E0EE0FFF1FED56FD4FA591D7
:102D1000B491EC91E92321F461E085E30E94FA0388
:102D200061E085E30E9427048CB580618CBD8CB581
:102D300080648CBD61E084E30E94270461E083E34A
:102D40000E9427048091130F8F5F8093130F1FBF82
:102D5000E0913119F091321982E5808311828EE27F
:102D600099E10E945E05E0913119F091321961E01C
:102D700082810E94FA031AE08FEF0E94B904115079
:102D8000D9F7E0913119F091321960E082810E9407
:102D9000FA031AE020E030E0A90160E08EE299E158
:102DA0000E947605082F813029F11150A9F480E2A4
:102DB000809330198EE299E10E94DD0480E0DF917A
:102DC000CF911F910F91FF90EF90DF90CF90BF9028
:102DD000AF909F908F9008958DEF0E94B90498E076
:102DE000A92E92E0B92E0E94BE04F1E0AF1AB108FC
:102DF000D1F7D0CF2AEA31E040E050E068E08EE23F
:102E000099E10E94760514E0853041F5009335196B
:102E100080913519812C912C5401823029F4812C18
:102E2000912CA12C80E4B82E20E030E0A90167E3CA
:102E30008EE299E10E947605A501940169E28EE295
:102E400099E10E9476058823B9F00E94AD046C19BF
:102E50007D09613D774040F383E4AACF0E94BE0420
:102E6000809334191150D1F78A3A21F482E080938B
:102E70003519CECF85E29CCF809135198230D1F4BF
:102E800020E030E0A9016AE38EE299E10E94760534
:102E9000882311F087E38CCF0E94BE04807C803CA5
:102EA00019F483E0809335190E94BE040E94BE0489
:102EB0000E94BE048EE299E10E94DD04E091311986
:102EC000F0913219D083C1838EE299E19093E71695
:102ED0008093E6168EE099E10E94530B81E00E94F8
:102EE0003C078823C1F080910E19811167CF66EEEF
:102EF00076E18EE099E1B3DE882309F45FCF90910B
:102F00000E19907709F45ACF2EE039E13093120F61
:102F10002093110F54CF80E00E943C078111E3CF32
:102F20004DCF8F929F92AF92BF92DF92EF92FF921E
:102F30000F931F93CF93DF93CDB7DEB7E8970FB60C
:102F4000F894DEBF0FBECDBFD82E882309F4A9C0E8
:102F50006091AE167091AF168091B0169091B11637
:102F60000E94B9582DE931E041E859E30E9418590F
:102F700020E030E040E85EE30E9418596093440E80
:102F80007093450E8093460E9093470E8090440EAA
:102F90009090450EA090460EB090470E20E030E095
:102FA000A901C501B4010E94B3589E01275D3F4F9E
:102FB0007901882309F47EC080E1F90111928A9594
:102FC000E9F7C501B4019058890124E043E00E946B
:102FD0001B546091440E7091450E8091460E909165
:102FE000470E90580EE41EE024E043E00E941B547C
:102FF0008E010F5F1F4FDD2009F462C0FF92EF9238
:103000008DE795E09F938F931F930F930E94045E2B
:10301000B80187E19FE0F7D8CCD8FF92EF9285E91D
:1030200095E09F938F931F930F930E94045EB801C6
:1030300087E19FE0E8D8BDD8FF92EF9281EB95E061
:103040009F938F931F930F930E94045EB80187E1B3
:103050009FE0D9D8AED8FF92EF9288EC95E09F938D
:103060008F931F930F930E94045EB80187E19FE046
:10307000DAD89FD80FB6F894DEBF0FBECDBFE89662
:103080000FB6F894DEBF0FBECDBFDF91CF911F9179
:103090000F91FF90EF90DF90BF90AF909F908F9037
:1030A000089560916A1670916B1680916C169091DC
:1030B0006D1656CF68E775E0C9010E94B25D98CFE2
:1030C000FF92EF9282EE95E09F938F931F930F9361
:1030D0000E94045EB80187E19FE095D86AD8FF920C
:1030E000EF928AEF95E09F938F931F930F930E9427
:1030F000045EB80187E19FE086D85BD8FF92EF922B
:1031000086E196E09F938F931F930F930E94045E36
:10311000B80187E19FE077D84CD8FF92EF9280E327
:1031200096E09F938F931F930F930E94045EB801C4
:1031300087E19FE068D89DCFCF93DF93CFEFDFEF9C
:103140008091F20E0E94D203019709F06CC0CF3F2C
:10315000DC0709F068C08091020290910302892B7C
:1031600009F46DC08091040290910502092E000CB3
:10317000AA0BBB0B4091AE165091AF166091B016E2
:103180007091B116481B590B6A0B7B0B40934A0E8A
:1031900050934B0E60934C0E70934D0E82EA96E165
:1031A0000E94BB108091F40E9091F50EA091F60E46
:1031B000B091F70E9C01AD0166277727CB01621B0A
:1031C000730B840B950B0E94B958AB01BC0182EACA
:1031D00096E10E94360E40914A0E50914B0E60913E
:1031E0004C0E70914D0E8091AE169091AF16A0913D
:1031F000B016B091B116481759076A077B0769F0F6
:103200008091F40E9091F50EA091F60EB091F70E0C
:10321000181619061A061B066CF087E19FE00E943B
:103220006F02EC018DCFC536D10549F481E0DF9105
:10323000CF9177CE82EA96E10E946E10CCCF68E4FF
:1032400076E087E19FE00E9413110E94D9108091DF
:10325000F20E0E94D203892B09F059C0409104025A
:1032600050910502052E000C660B770B8091AE166F
:103270009091AF16A091B016B091B116480F591F9A
:103280006A1F7B1F40934A0E50934B0E60934C0E67
:1032900070934D0E82EA96E10E94BB106091F40E8D
:1032A0007091F50E8091F60E9091F70E0E94B9582C
:1032B000AB01BC0182EA96E10E94360E40914A0EB3
:1032C00050914B0E60914C0E70914D0E8091AE1648
:1032D0009091AF16A091B016B091B116481759074A
:1032E0006A077B0709F4B3CF8091F40E9091F50E35
:1032F000A091F60EB091F70E181619061A061B06C5
:103300000CF0A5CF82EA96E10E946E10D7CF64E55B
:1033100076E087E19FE00E941311DF91CF910C943A
:10332000D910CF93DF93CFEFDFEF8091AE0E0E94E5
:10333000D203019709F06CC0CF3FDC0709F068C0E9
:103340008091020290910302892B09F46DC0809153
:10335000040290910502092E000CAA0BBB0B4091B0
:103360006A1650916B1660916C1670916D16481B21
:10337000590B6A0B7B0B40934A0E50934B0E609394
:103380004C0E70934D0E8EE596E10E94BB1080911D
:10339000F40E9091F50EA091F60EB091F70E9C01EF
:1033A000AD0166277727CB01621B730B840B950B4E
:1033B0000E94B958AB01BC018EE596E10E94360E21
:1033C00040914A0E50914B0E60914C0E70914D0EF3
:1033D00080916A1690916B16A0916C16B0916D1643
:1033E000481759076A077B0769F08091F40E90919E
:1033F000F50EA091F60EB091F70E181619061A06E2
:103400001B066CF087E19FE00E946F02EC018DCFFC
:10341000C536D10549F480E0DF91CF9182CD8EE5AC
:1034200096E10E946E10CCCF68E476E087E19FE0E1
:103430000E9413110E94D9108091AE0E0E94D203F7
:10344000892B09F059C04091040250910502052EC4
:10345000000C660B770B80916A1690916B16A09109
:103460006C16B0916D16480F591F6A1F7B1F409351
:103470004A0E50934B0E60934C0E70934D0E8EE59A
:1034800096E10E94BB106091F40E7091F50E809150
:10349000F60E9091F70E0E94B958AB01BC018EE573
:1034A00096E10E94360E40914A0E50914B0E60916B
:1034B0004C0E70914D0E80916A1690916B16A091F2
:1034C0006C16B0916D16481759076A077B0709F407
:1034D000B3CF8091F40E9091F50EA091F60EB091BD
:1034E000F70E181619061A061B060CF0A5CF8EE566
:1034F00096E10E946E10D7CF64E576E087E19FE009
:103500000E941311DF91CF910C94D910CF93DF93C8
:10351000CFEFDFEF8091B00E0E94D203019709F048
:1035200063C0CF3FDC0709F05FC080910202909139
:103530000302892B09F464C04091040250910502F2
:10354000052E000C660B770B80916A1690916B1616
:10355000A0916C16B0916D16480F591F6A1F7B1F02
:1035600040934A0E50934B0E60934C0E70934D0E49
:103570008EE596E10E94BB106091F40E7091F50EFD
:103580008091F60E9091F70E0E94B958AB01BC01E4
:103590008EE596E10E94360E40914A0E50914B0EF8
:1035A00060914C0E70914D0E80916A1690916B1641
:1035B000A0916C16B0916D16481759076A077B07E2
:1035C00069F08091F40E9091F50EA091F60EB091F5
:1035D000F70E181619061A061B066CF087E19FE015
:1035E0000E946F02EC0196CFC536D10549F480E008
:1035F000DF91CF9196CC8EE596E10E946E10CCCFF4
:1036000068E476E087E19FE00E9413110E94D910E0
:103610008091B00E0E94D203892B09F062C0809184
:10362000040290910502092E000CAA0BBB0B4091DD
:103630006A1650916B1660916C1670916D16481B4E
:10364000590B6A0B7B0B40934A0E50934B0E6093C1
:103650004C0E70934D0E8EE596E10E94BB1080914A
:10366000F40E9091F50EA091F60EB091F70E9C011C
:10367000AD0166277727CB01621B730B840B950B7B
:103680000E94B958AB01BC018EE596E10E94360E4E
:1036900040914A0E50914B0E60914C0E70914D0E20
:1036A00080916A1690916B16A0916C16B0916D1670
:1036B000481759076A077B0709F4AACF8091F40ECF
:1036C0009091F50EA091F60EB091F70E181619060E
:1036D0001A061B060CF09CCF8EE596E10E946E1038
:1036E000D7CF64E576E087E19FE00E941311DF9178
:1036F000CF910C94D910CF93DF93CFEFDFEF809170
:10370000F00E0E94D203019709F063C0CF3FDC079F
:1037100009F05FC08091020290910302892B09F4A5
:1037200064C04091040250910502052E000C660B06
:10373000770B8091AE169091AF16A091B016B09114
:10374000B116480F591F6A1F7B1F40934A0E5093B2
:103750004B0E60934C0E70934D0E82EA96E10E94E0
:10376000BB106091F40E7091F50E8091F60E909161
:10377000F70E0E94B958AB01BC0182EA96E10E94A3
:10378000360E40914A0E50914B0E60914C0E709146
:103790004D0E8091AE169091AF16A091B016B091DB
:1037A000B116481759076A077B0769F08091F40E34
:1037B0009091F50EA091F60EB091F70E181619061D
:1037C0001A061B066CF087E19FE00E946F02EC0175
:1037D00096CFC536D10549F481E0DF91CF91A1CBD9
:1037E00082EA96E10E946E10CCCF68E476E087E131
:1037F0009FE00E9413110E94D9108091F00E0E9448
:10380000D203892B09F062C08091040290910502D5
:10381000092E000CAA0BBB0B4091AE165091AF16AF
:103820006091B0167091B116481B590B6A0B7B0B57
:1038300040934A0E50934B0E60934C0E70934D0E76
:1038400082EA96E10E94BB108091F40E9091F50EF1
:10385000A091F60EB091F70E9C01AD016627772777
:10386000CB01621B730B840B950B0E94B958AB0103
:10387000BC0182EA96E10E94360E40914A0E5091B8
:103880004B0E60914C0E70914D0E8091AE16909142
:10389000AF16A091B016B091B116481759076A0734
:1038A0007B0709F4AACF8091F40E9091F50EA091B8
:1038B000F60EB091F70E181619061A061B060CF034
:1038C0009CCF82EA96E10E946E10D7CF64E576E045
:1038D00087E19FE00E941311DF91CF910C94D910E2
:1038E00080E01FCB81E01DCB80910102813049F542
:1038F0001092AE161092AF161092B0161092B1162A
:103900001092B2161092B3161092B4161092B51609
:103910001092D6161092D7161092D8161092D91669
:103920001092C6161092C7161092C8161092C91699
:103930001092B6161092B7161092B8161092B916C9
:10394000F0CA10926A1610926B1610926C161092B2
:103950006D1610926E1610926F16109270161092CD
:10396000711610929216109293161092941610924D
:103970009516109282161092831610928416109249
:103980008516109272161092731610927416109279
:10399000751680E0D5CF80E0C4CA81E0C2CA0F931B
:1039A0001F93CF93DF93EC0188819981009759F0A1
:1039B0002A813B812617370730F081E0DF91CF91D4
:1039C0001F910F9108958B016F5F7F4F0E94C05C24
:1039D000009759F0998388831B830A832C813D814A
:1039E000232B59F7FC011082E8CF80E0E7CFEF925C
:1039F000FF920F931F93CF93DF93EC017B0119820A
:103A000018821B821A821D821C82FB0101900020F9
:103A1000E9F731978F01061B170BB801C0DF28812A
:103A20003981811113C02115310519F0C9010E9496
:103A3000375C198218821D821C821B821A82DF91D8
:103A4000CF911F910F91FF90EF9008951D830C83EC
:103A5000B701C901DF91CF911F910F91FF90EF90B6
:103A60000C94B25DEF92FF920F931F93CF93DF936D
:103A70006115710541F480E0DF91CF911F910F91A5
:103A8000FF90EF900895FB0101900020E9F7319736
:103A9000E61BF70BD9F07B018C01DC011496CD916C
:103AA000DC91CE0FDF1FBE017ADF882321F3F801FE
:103AB0002081318184819581B701820F931F0E94FB
:103AC000B25DD8011596DC93CE93149781E0D4CFE4
:103AD000CF92DF92EF92FF920F931F93CF93DF93DA
:103AE000CDB7DEB760970FB6F894DEBF0FBECDBF7F
:103AF0006B018E010F5F1F4F8AE0F80111928A95CA
:103B0000E9F765E675E0CE010B9671DF4AE0B80192
:103B1000C6010E94C5546091E8157091E915CE0167
:103B20000B96A0DF60E676E0CE010B969BDFB80136
:103B3000CE010B9697DF8B859C850E94141170E057
:103B400060E0CE010B962BDF2B853C85811132C0C6
:103B50002115310519F0C9010E94375C1C861B86AE
:103B6000188A1F861E861D8669E676E0CE010B96B2
:103B700079DF6091E8157091E915CE010B9672DF3F
:103B80008B859C850E9414110E94A115182FCE01CF
:103B90000B965DD8812F60960FB6F894DEBF0FBEEE
:103BA000CDBFDF91CF911F910F91FF90EF90DF90EC
:103BB000CF900895188A1F8665E675E0C9010E94B6
:103BC000B25DD2CFEF92FF920F931F93CF93DF930B
:103BD00000D000D0CDB7DEB77C018B016EE676E079
:103BE000CE01019604DFF70162817381CE01019657
:103BF00039DF63E776E0CE01019634DF89819A816F
:103C00000E94141164E670E0C8010E94E215182FAA
:103C1000CE0101961CD8612F70E090E080E02696DE
:103C20000FB6F894DEBF0FBECDBFDF91CF911F91CD
:103C30000F91FF90EF900895CF92DF92EF92FF9255
:103C40000F931F93CF93DF93CDB7DEB7C054D10945
:103C50000FB6F894DEBF0FBECDBFBE01635C7F4FD1
:103C600086ED93E1AFDFDDACCEAC8EE18E01015E7F
:103C70001F4FF801282F11922A95E9F7FE0131967E
:103C80007F0111928A95E9F78EE49EE09F938F93CE
:103C9000CF92DF9288E796E09F938F931F9286E101
:103CA0008F931F930F930E94C85D80914D0E8F9349
:103CB00080914C0E8F9380914B0E8F9380914A0E82
:103CC0008F93CF92DF9289E896E09F938F931F9214
:103CD00088E18F93FF92EF920E94C85DB80187E15F
:103CE0009FE00E9413110E94D910B70187E19FE065
:103CF0000E9413110E94D9100FB6F894DEBF0FBEB8
:103D0000CDBFC05CDF4F0FB6F894DEBF0FBECDBF96
:103D1000DF91CF911F910F91FF90EF90DF90CF90A7
:103D20000895AF92BF92CF92DF92EF92FF920F93DE
:103D30001F93CF93DF93CDB7DEB7C854D1090FB629
:103D4000F894DEBF0FBECDBFBE016B5B7F4F8AEC28
:103D500093E138DF2696BFAC26972796AFAC27971E
:103D60007E018CE1E80EF11C85E1F70111928A9544
:103D7000E9F78E010F5C1F4F84E1F80111928A95DB
:103D8000E9F7CE0101966C018BE1F60111928A955B
:103D9000E9F7AF92BF928EE996E09F938F931F92BF
:103DA0008EE08F93FF92EF920E94C85DAF92BF9218
:103DB0008DEA96E09F938F931F9282E18F931F93DA
:103DC0000F930E94C85DAF92BF9280EC96E09F93E4
:103DD0008F931F928AE18F93DF92CF920E94C85DEA
:103DE000B70187E19FE00E9413110E94D910B8012A
:103DF00087E19FE00E9413110E94D910B60187E16C
:103E00009FE00E9413110E94D9100FB6F894DEBFF4
:103E10000FBECDBFC85BDF4F0FB6F894DEBF0FBE3D
:103E2000CDBFDF91CF911F910F91FF90EF90DF9069
:103E3000CF90BF90AF900895EF92FF920F931F9392
:103E4000CF93DF9300D000D0CDB7DEB77C018B01DC
:103E500065E675E0CE010196CADDF70162817381E6
:103E6000CE010196FFDD6EEC76E0CE010196FADD23
:103E7000B801CE010196F6DD6CEC76E0CE0101963C
:103E8000F1DD89819A810E9414110E94A115182FD9
:103E9000CE0101960E942716812F26960FB6F89420
:103EA000DEBF0FBECDBFDF91CF911F910F91FF906D
:103EB000EF900895AF92BF92CF92DF92EF92FF9270
:103EC0000F931F93CF93DF9300D000D0CDB7DEB711
:103ED0007C018B015A0165E675E0CE01019687DD14
:103EE0006EE676E0CE010196BDDDF7016281738159
:103EF000CE010196B7DD62EC79E0CE010196B2DD2C
:103F000089819A810E9414110E94AD046B017C0189
:103F1000B501C8010E94731410929C0E80919C0EF2
:103F2000811116C00E94AD046C197D098E099F098C
:103F3000653671058105910538F470E060E090E028
:103F400080E00E947314EACF85ED96E00E941E1176
:103F500080919C0E882301F110929C0EF801019033
:103F60000020E9F731971E2F101BCE0101960E9409
:103F70002716812F90E026960FB6F894DEBF0FBE6D
:103F8000CDBFDF91CF911F910F91FF90EF90DF9008
:103F9000CF90BF90AF90089510E0E7CF0F931F939D
:103FA000CF93DF93CDB7DEB765970FB6F894DEBF3A
:103FB0000FBECDBF8E010F5F1F4F8FE0F801119232
:103FC0008A95E9F74FE050E0B8018AE495E172DFA5
:103FD000B801CE0140960BDD8091391990913A19C4
:103FE000009709F441C06889798961157105D1F19B
:103FF00040913B1950913C192C893D894217530738
:1040000088F10E94B25D8C899D8990933E198093BE
:104010003D191D8A1C8ACE0140960E9427168FE00A
:10402000F80111928A95E9F74FE050E0B80186E572
:1040300095E140DFC8010E943B549093490E809364
:10404000480E181619061CF481E00E949117659617
:104050000FB6F894DEBF0FBECDBFDF91CF911F9199
:104060000F9108950E94375C8889998990933A1935
:10407000809339198A899B8990933C1980933B19C5
:104080008C899D8990933E1980933D19198A188ACD
:104090001B8A1A8ABECF8F929F92AF92BF92EF92E5
:1040A000FF920F931F93CF93DF93CDB7DEB7609747
:1040B0000FB6F894DEBF0FBECDBF7C014A018E0162
:1040C0000F5F1F4F8AE0F80111928A95E9F765E6C4
:1040D00075E0CE010B968BDC4AE0B801C4010E946A
:1040E000C554F70162817381CE010B96BBDC67EE8C
:1040F00076E0CE010B96B6DCB801CE010B96B2DCB1
:104100008B859C850E9414110E94A115182FCE0149
:104110000B960E942716812F60960FB6F894DEBF8B
:104120000FBECDBFDF91CF911F910F91FF90EF9008
:10413000BF90AF909F908F9008954F925F926F9233
:104140007F928F929F92AF92BF92CF92DF92EF9227
:10415000FF920F931F93CF93DF93CDB7DEB7E7970F
:104160000FB6F894DEBF0FBECDBF2B013C01142F5C
:10417000CE0101966C0187E3F60111928A95E9F769
:104180006091A80E7091A90E8091AA0E9091AB0E2D
:104190000E94B9584B015C01AC019B01113021F028
:1041A00020E030E048EC52E4C301B2010E944D5AD5
:1041B000A50194010E9418590E94B55A7B018C01F7
:1041C000AB01BC0186EE95E166DFA701B8018AED7F
:1041D00095E161DF1F930F93FF92EF928EEB92E0D8
:1041E0009F938F93DF92CF920E94045EB60187E186
:1041F0009FE00E9403110E94D910E092F40EF09209
:10420000F50E0093F60E1093F70E0FB6F894DEBF7E
:104210000FBECDBFE7960FB6F894DEBF0FBECDBF81
:10422000DF91CF911F910F91FF90EF90DF90CF9092
:10423000BF90AF909F908F907F906F905F904F90C6
:104240000895CF92DF92EF92FF92CF93DF9300D049
:104250001F92CDB7DEB7BE016F5F7F4F8EEF95E146
:10426000B1DC69817A818B819C810E94B7586B0196
:104270007C0120E030E0A9010E94B3588823B9F006
:1042800020E030E048EC52E4C701B6010E94B35888
:1042900040E081110DC06091A80E7091A90E80912F
:1042A000AA0E9091AB0E0E94B9586B017C0141E0BF
:1042B000C701B60142DF0F900F900F900F90DF9172
:1042C000CF91FF90EF90DF90CF900895CF93DF9341
:1042D00000D01F92CDB7DEB7BE016F5F7F4F86EE75
:1042E00095E170DC69817A81072E000C880B990BAF
:1042F0000E94B95841E021DF0F900F900F900F906E
:10430000DF91CF9108958F929F92AF92BF92CF92FB
:10431000DF92EF92FF920F931F93CF93DF93CDB76E
:10432000DEB7A8970FB6F894DEBF0FBECDBF80E111
:104330009E012F5F3F4F6901F901282F11922A95A5
:10434000E9F77E0131E1E30EF11CF70111928A9544
:10435000E9F78E010F5D1F4F88E0F80111928A95F1
:10436000E9F740E150E0B60186E694E1A3DD40E1E3
:1043700050E0B7018AE594E19DDD48E050E0B801E6
:104380008EE494E197DDC6010E9458544B015C0114
:104390009FDBC7010E945854640175016C157D05AF
:1043A0008E059F0514F46B017C01B701A60186EE12
:1043B00095E171DEC701B6010E94B9586B017C011D
:1043C000BC01A60182EA96E10E94360EB701A60161
:1043D0008EE596E10E94360E86EE95E177DFC80104
:1043E0000E943B549093050280930402A8960FB656
:1043F000F894DEBF0FBECDBFDF91CF911F910F911B
:10440000FF90EF90DF90CF90BF90AF909F908F90F4
:1044100008952F923F924F925F926F927F928F9268
:104420009F92AF92BF92CF92DF92EF92FF920F9343
:104430001F93CF93DF93CDB7DEB7CC53D1400FB6E8
:10444000F894DEBF0FBECDBFC55CDE4F9983888375
:10445000CB53D1405E0125EFA20EB11C83E2F501E2
:1044600011928A95E9F78E01085E1E4F82E2F801EB
:1044700011928A95E9F72E01FCE24F0E511C8AE257
:10448000F20111928A95E9F73E01FEEC6F0E711C64
:1044900087E2F30111928A95E9F79E012F5F3F4F62
:1044A00049018BE2F90111928A95E9F76E01F6E56F
:1044B000CF0ED11C88E2F601282F11922A95E9F738
:1044C0007E013EE7E30EF11CF701282F11922A9599
:1044D000E9F71E0136EA230E311CF10111928A958B
:1044E000E9F76DEE76E0C5010E94B25D6FE077E01E
:1044F000C8010E94B25D60E377E0C2010E94B25D34
:1045000069E577E0C4010E94B25D63E877E0C3012A
:104510000E94B25D69EA77E0C6010E94B25D60ED7B
:1045200077E0C7010E94B25D62EF77E0C1010E94AF
:10453000B25D8091B30EF091B20EC65CDE4FF8838F
:10454000CA53D140C55CDE4F28813981CB53D1405D
:10455000232B09F0B5C061E00E94FA0361E0C65C5C
:10456000DE4F8881CA53D1400E94FA03B50187E12A
:104570009FE00E9413110E94D9101F921F9218EF02
:104580001F931F928DED92E09F938F93BF92AF92F6
:104590000E94045EB50187E19FE00E9403110E9422
:1045A000D910B60187E19FE00E9413110E94D91033
:1045B0001F921F921F931F9286EF92E09F938F93FB
:1045C000DF92CF920E94045EB60187E19FE00E94D5
:1045D00003110E94D910B40187E19FE00E941311DA
:1045E0000E94D9101F921F921F931F9284E193E0A3
:1045F0009F938F939F928F920E94045EB40187E1F4
:104600009FE00E9403110E94D910B70187E19FE04B
:104610000E9413110E94D9101F921F921F931F9284
:1046200085E393E09F938F93FF92EF920E94045E45
:104630000FB6F894DEBF0FBECDBFB70187E19FE094
:104640000E9403110E94D91040E050E0BA018AE1B3
:1046500095E121DD40E050E0BA018EE191E11BDD02
:1046600040E050E0BA0182E794E115DD60E080911E
:10467000B6020E94FA0360E08091B4020E94FA033D
:10468000C55CDE4F88819981CB53D140C45CDE4F3D
:104690000FB6F894DEBF0FBECDBFDF91CF911F9153
:1046A0000F91FF90EF90DF90CF90BF90AF909F90D1
:1046B0008F907F906F905F904F903F902F900895D4
:1046C00060E00E94FA0360E0C65CDE4F8881CA5356
:1046D000D1400E94FA03B80187E19FE00E941311C4
:1046E0000E94D9101F921F9287E8E82EEF9290EE59
:1046F000F92EFF928DED92E09F938F931F930F936E
:104700000E94045EB80187E19FE00E9403110E94AD
:10471000D910B30187E19FE00E9413110E94D910C4
:104720001F921F92EF92FF9286EF92E09F938F93DA
:104730007F926F920E94045EB30187E19FE00E9426
:1047400003110E94D910B20187E19FE00E9413116A
:104750000E94D9101F921F92EF92FF9284E193E082
:104760009F938F935F924F920E94045EB20187E104
:104770009FE00E9403110E94D910B10187E19FE0E0
:104780000E9413110E94D9101F921F92EF92FF9264
:1047900085E393E09F938F933F922F920E94045E54
:1047A0000FB6F894DEBF0FBECDBFB10187E19FE029
:1047B0000E9413110E94D91041E050E060E070E0C7
:1047C0008AE195E168DC41E050E060E070E08EE174
:1047D00091E161DC41E050E060E070E082E794E16B
:1047E0005ADC61E08091B6020E94FA0361E044CF96
:1047F00090E080E00EDE9093030280930202089521
:104800000F931F93CF93DF9381E090E09093030287
:104810008093020287E19FE00E946F0297FD2EC005
:104820008536910551F487E19FE00E946F02EC010B
:1048300087E19FE00E946F028C01209789F401328A
:10484000110541F7109203021092020290E080E0FD
:10485000E0DD80910202DF91CF911F910F910895C9
:10486000C130D10521F40E301105A1F6EBCFC230D5
:10487000D10581F60833110569F6E4CF81E0EBCF6D
:10488000CF92DF92EF92FF920F931F93CF93DF931C
:10489000CDB7DEB76F970FB6F894DEBF0FBECDBFB2
:1048A0007C0187E19FE00E946F020196D1F78E01A3
:1048B0000F5F1F4F8FE1F80111928A95E9F74FE1E1
:1048C00050E0B801C701F6DAC8010E9438542DE95A
:1048D00031E041E859E30E944D5A20E030E040E8E1
:1048E00050E40E9418590E94B55A6B017C0187E17F
:1048F0009FE00E946F020196D1F7B701A60182EAFC
:1049000096E10E94BB106091F40E7091F50E8091BB
:10491000F60E9091F70E0091AE161091AF16209101
:10492000B0163091B11630952095109501951F4F16
:104930002F4F3F4FC016D106E206F3069CF50E94AA
:10494000B958AB01BC0182EA96E10E94360E10E034
:1049500081E00091F20E4091AE165091AF16609139
:10496000B0167091B11670956095509541955F4F56
:104970006F4F7F4FC416D506E606F70621F1882350
:1049800011F1802F0E94D2030197E9F48091F00E7B
:104990000E94D2030197B9F482EA96E10E946E1058
:1049A0002FDFD7CF90958095709561957F4F8F4F72
:1049B0009F4F0E94B958AB01BC0182EA96E10E9468
:1049C000360E11E0C5CF802F0E94D203019739F136
:1049D00068E476E087E19FE00E9413110E94D910FD
:1049E000C090AE16D090AF16E090B016F090B11611
:1049F00028E5C20E22E0D21EE11CF11CB701A6017F
:104A000082EA96E10E94BB10112349F16091F40EF5
:104A10007091F50E8091F60E9091F70E31C0809155
:104A2000F00E0E94D203019799F664E576E087E1E3
:104A30009FE00E9413110E94D91081E00E949117FB
:104A40006F960FB6F894DEBF0FBECDBFDF91CF914A
:104A50001F910F91FF90EF90DF90CF90089580917C
:104A6000F40E9091F50EA091F60EB091F70E9C0108
:104A7000AD0166277727CB01621B730B840B950B67
:104A80000E94B958AB01BC0182EA96E10E94360E41
:104A90008091AE169091AF16A091B016B091B1165C
:104AA000C816D906EA06FB0609F4BFCF82EA96E1EA
:104AB0000E946E10EDCFCF93DF9300D01F92CDB741
:104AC000DEB7BE016F5F7F4F86ED93E17BD8E98152
:104AD000FA813197E730F10580F48827ED58FA4DD7
:104AE0008F4F0C94935B7A25842587258A258D2505
:104AF0009025932582E593E1C3DE0F900F900F90F0
:104B00000F90DF91CF91089586E493E1F5CF8AE38A
:104B100093E1F2CF8EE293E1EFCF82E293E1ECCF2B
:104B200086E193E1E9CF8AE093E1E6CFEF92FF924D
:104B30001F93CF93DF9300D000D000D01F92CDB74A
:104B4000DEB765E675E0CE0101960E94F71CBE0156
:104B5000695F7F4F8AEC93E135D8EF80F884BE011E
:104B6000695F7F4F82EB93E12DD81F811093010283
:104B7000113009F050C08091AE169091AF16A091FF
:104B8000B016B091B11680934A0E90934B0EA0933D
:104B90004C0EB0934D0E40E050E0BA0182EA96E12F
:104BA0000E94BB1080914A0E90914B0EA0914C0E2A
:104BB000B0914D0EB7FF4EC024E6E216F10409F4A1
:104BC00040C06091F40E7091F50E8091F60E9091B8
:104BD000F70E0E94B958AB01BC01113009F059C061
:104BE00082EA96E10E94360E81E04091AE16509125
:104BF000AF166091B0167091B116452B462B472B1E
:104C000009F45CC0882309F459C082EA96E10E9445
:104C10006E10F6DDEACF80916A1690916B16A09126
:104C20006C16B0916D1680934A0E90934B0EA09324
:104C30004C0EB0934D0E40E050E0BA018EE596E187
:104C4000AFCF6091A80E7091A90E8091AA0E90919D
:104C5000AB0EBFCF34E6E316F10491F08091F40E71
:104C60009091F50EA091F60EB091F70E9C01AD015A
:104C700066277727CB01621B730B840B950BA9CF9B
:104C80008091A80E9091A90EA091AA0EB091AB0EA2
:104C9000EDCF8EE596E10E94360E81E040916A16D6
:104CA00050916B1660916C1670916D16452B462BCA
:104CB000472B11F0811115C080E001C081E00E94F6
:104CC0009117CE0101960E9427162A960FB6F894E6
:104CD000DEBF0FBECDBFDF91CF911F91FF90EF9050
:104CE00008958EE596E10E946E108ADDD7CF8F92EF
:104CF0009F92AF92BF92CF92DF92EF92FF92CF93AB
:104D0000DF93C82F6A017B0181E090E0909303025A
:104D100080930202D091F20EC13011F0D091F00ECA
:104D200046015701B7FAB094B7F8B0948D2F0E949E
:104D3000D203019709F06AC08091020290910302A8
:104D4000892B09F463C08091040290910502092E19
:104D5000000CAA0BBB0B4091AE165091AF166091A0
:104D6000B0167091B116C13009F0BEC0481B590B86
:104D70006A0B7B0B40934A0E50934B0E60934C0E84
:104D800070934D0E82EA96E10E94BB1020E030E065
:104D900040E85FEBC701B6010E94B358B501A4011A
:104DA000811115C08091F40E9091F50EA091F60E30
:104DB000B091F70E9C01AD0166277727CB01621BEE
:104DC000730B840B950B0E94B958AB01BC0182EAAE
:104DD00096E10E94360E40914A0E50914B0E609122
:104DE0004C0E70914D0E8091AE169091AF16A09121
:104DF000B016B091B116481759076A077B0709F436
:104E000098C082EA96E10E946E10E5CF68E476E0F1
:104E100087E19FE00E9413110E94D91046015701BB
:104E2000B7FAB094B7F8B0948D2F0E94D203892BB3
:104E300009F0B4C08091040290910502092E000C83
:104E4000AA0BBB0B4091AE165091AF166091B016F5
:104E50007091B116C13009F073C0480F591F6A1F15
:104E60007B1F40934A0E50934B0E60934C0E7093F1
:104E70004D0E82EA96E10E94BB1020E030E040E84F
:104E80005FEBC701B6010E94B358B701A6018111BB
:104E90000CC06091F40E7091F50E8091F60E909119
:104EA000F70E0E94B958AB01BC0182EA96E10E945C
:104EB000360E40914A0E50914B0E60914C0E7091FF
:104EC0004D0E8091AE169091AF16A091B016B09194
:104ED000B116481759076A077B0709F4A5CF82EA7C
:104EE00096E10E946E10E5CF480F591F6A1F7B1F85
:104EF00040934A0E50934B0E60934C0E70934D0EA0
:104F000082EA96E10E94BB1020E030E040E85FEBCF
:104F1000C701B6010E94B358B701A601811157CF4E
:104F20006091F40E7091F50E8091F60E9091F70E4F
:104F30004ACF66DC90E09093030280930202F6CEA3
:104F4000481B590B6A0B7B0B40934A0E50934B0E38
:104F500060934C0E70934D0E82EA96E10E94BB1056
:104F600020E030E040E85FEBC701B6010E94B35893
:104F7000B501A401811199CF8091F40E9091F50EA5
:104F8000A091F60EB091F70E9C01AD016627772730
:104F9000CB01621B730B840B950B83CF64E576E02A
:104FA00087E19FE00E9413110E94D9106091AE1614
:104FB0007091AF168091B0169091B1160E94B958B9
:104FC000DF91CF91FF90EF90DF90CF90BF90AF90A7
:104FD0009F908F900895DF92EF92FF920F931F930F
:104FE000CF93DF93CDB7DEB760970FB6F894DEBFEF
:104FF0000FBECDBF81E090E0909303028093020248
:105000006091A80E7091A90E8091AA0E9091AB0E9E
:105010000E94B958AB01BC0181E069DE80910202B7
:1050200090910302892B09F463C080E1D82ECE0150
:1050300001967C01FC018D2D11928A95E9F7609112
:10504000AE167091AF168091B0169091B1160E9475
:10505000B9582DE931E041E859E30E94185920E0A0
:1050600030E040E85EE30E9418599058870124E040
:1050700043E00E941B54B70186E994E10E941C1F83
:105080006091A80E7091A90E8091AA0E9091AB0E1E
:105090000E94B958AB01BC0180E029DE8091020278
:1050A00090910302892B21F1F7011192DA94E9F72B
:1050B0006091AE167091AF168091B0169091B116B6
:1050C0000E94B9582DE931E041E859E30E9418598E
:1050D00020E030E040E85EE30E941859905824E058
:1050E00043E00E941B54B7018AE894E10E941C1F10
:1050F00081E00E94911760960FB6F894DEBF0FBE54
:10510000CDBFDF91CF911F910F91FF90EF90DF9076
:105110000895CF93DF9300D01F92CDB7DEB781E023
:1051200090E09093030280930202BE016F5F7F4F75
:1051300082E395E10E94E21D89819A81AB81BC8165
:1051400040E050E060E87FEB0197A105B10561F414
:105150006091A80E7091A90E8091AA0E9091AB0E4D
:105160000E94B958AB01BC0181E0C1DD81E00E9421
:1051700091170F900F900F900F90DF91CF9108959E
:10518000CF93DF9300D01F92CDB7DEB781E090E0E0
:105190009093030280930202BE016F5F7F4F82E310
:1051A00095E10E94E21D89819A81AB81BC8140E03A
:1051B00050E060E87FEB0197A105B10561F46091D3
:1051C000A80E7091A90E8091AA0E9091AB0E0E942C
:1051D000B958AB01BC0180E08ADD81E00E949117E3
:1051E0000F900F900F900F90DF91CF910895EF9255
:1051F000FF920F931F93CF93DF9300D000D0CDB7D2
:10520000DEB77C018B016EE676E0CE0101960E944E
:10521000F71CF70162817381CE0101960E94321D55
:1052200063E776E0CE0101960E94321D89819A8162
:105230000E94141101151105C1F064E670E0C80167
:105240000E94E215182FCE0101960E942716812F89
:1052500026960FB6F894DEBF0FBECDBFDF91CF917B
:105260001F910F91FF90EF90089510E0ECCFCF9336
:10527000DF9300D01F92CDB7DEB7BE016F5F7F4FC7
:105280008AE195E1B4DF89819A81892B41F4B0DA12
:105290000F900F900F900F90DF91CF91089581E0C4
:1052A00090E0B7D89093030280930202F1CFCF939E
:1052B000DF9300D01F92CDB7DEB7BE016F5F7F4F87
:1052C00082E794E194DF89819A81892B41F490DA15
:1052D0000F900F900F900F90DF91CF91089581E084
:1052E00090E097D89093030280930202F1CFCF937E
:1052F000DF9300D01F92CDB7DEB7BE016F5F7F4F47
:105300008EE191E174DF89819A81892B41F470DA11
:105310000F900F900F900F90DF91CF91089581E043
:1053200090E077D89093030280930202F1CFCF925E
:10533000DF92EF92FF921F93CF93DF93CDB7DEB74B
:1053400064970FB6F894DEBF0FBECDBF8091000208
:10535000813009F0CBC011E08091B40E0E94D203DD
:10536000E0900202F0900302019709F06DC0809175
:10537000F20E0E94D203019709F066C0EF2809F4EB
:1053800065C08091040290910502092E000CAA0BC1
:10539000BB0B4091AE165091AF166091B016709154
:1053A000B116481B590B6A0B7B0B40934A0E509366
:1053B0004B0E60934C0E70934D0E82EA96E10E9464
:1053C000BB108091F40E9091F50EA091F60EB09165
:1053D000F70E9C01AD0166277727CB01621B730B8B
:1053E000840B950B0E94B958AB01BC0182EA96E18F
:1053F0000E94360E4091B2165091B3166091B416C9
:105400007091B5168091AE169091AF16A091B0161E
:10541000B091B116481759076A077B0759F08417EE
:105420009507A607B7076CF41093A41682EA96E1D5
:105430000E946E10E5D990E09093030280930202DF
:105440008BCF1092A416F2CFEF2841F490E080E0C9
:105450000E94092290930302809302021092AE16DA
:105460001092AF161092B0161092B1161092B2169A
:105470001092B3161092B4161092B5161092D6165A
:105480001092D7161092D8161092D9161092C616EE
:105490001092C7161092C8161092C9161092B6161E
:1054A0001092B7161092B8161092B91663E178E010
:1054B000CE0101960E94B25DBE016F5F7F4F87E112
:1054C0009FE00E9403110E94D91081E00E94911771
:1054D00064960FB6F894DEBF0FBECDBFDF91CF91BB
:1054E0001F91FF90EF90DF90CF900895BE016F5F06
:1054F0007F4F8AEF93E17BDE11E08091AC0E0E943A
:10550000D203E0900202F09003020197A1F1EF288C
:1055100041F490E080E00E9409229093030280937E
:10552000020210926A1610926B1610926C1610926C
:105530006D1610926E1610926F16109270161092D1
:105540007116109292161092931610929416109251
:10555000951610928216109283161092841610924D
:10556000851610927216109273161092741610927D
:10557000751680E0ABCF8091B00E0E94D2030197E8
:1055800031F6EF2831F28091AE0E0E94D2030197DE
:1055900041F68091040290910502092E000CAA0B9D
:1055A000BB0B40916A1650916B1660916C1670910E
:1055B0006D16C980DA80EB80FC80CD28CE28CF28FC
:1055C00009F05EC0481B590B6A0B7B0B40934A0ED7
:1055D00050934B0E60934C0E70934D0E40914A0EBB
:1055E00050914B0E60914C0E70914D0E8EE596E1F0
:1055F0000E94BB106091F40E7091F50E8091F60E32
:105600009091F70EC980DA80EB80FC80CD28CE28FF
:10561000CF2839F490958095709561957F4F8F4F85
:105620009F4F0E94B958AB01BC018EE596E10E94E4
:10563000360E40916E1650916F16609170167091F3
:10564000711680916A1690916B16A0916C16B091AC
:105650006D16481759076A077B0759F08417950795
:10566000A607B707D4F4109360168EE596E10E9462
:105670006E10C6D890E090930302809302023DCF53
:10568000840F951FA61FB71F80934A0E90934B0E51
:10569000A0934C0EB0934D0EA1CF10926016E5CFA3
:1056A000CF93DF9300D01F92CDB7DEB7BE016F5FFF
:1056B0007F4F82E095E19BDD8981809301020F900D
:1056C0000F900F900F90DF91CF910895CF93DF93BC
:1056D00000D01F92CDB7DEB7BE016F5F7F4F82E46F
:1056E00094E185DD8981809300020F900F900F90E7
:1056F0000F90DF91CF910895EF92FF920F931F9338
:10570000CF93DF93CDB7DEB7CF58D1090FB6F8945A
:10571000DEBF0FBECDBF7E0120E7E20EF11C80E1AF
:10572000F70111928A95E9F740E150E0B70186ED63
:1057300090E10E945A1F60E070E0CB018B018AEC7F
:1057400090E155DD012B09F043C0C7010E94385498
:105750007E01F0E8EF0EF11C20E030E040E05FE376
:105760000E9418592091660E3091670E4091680E84
:105770005091690E0E94E959870124E043E00E949C
:105780001B54FF92EF9287E298E09F938F930F57FD
:1057900011091F930F930E94045EB80187E19FE0F7
:1057A0000E9403110E94D910BE016F5A7F4F8FE1F2
:1057B000FB0111928A95E9F74FE150E086EA90E10A
:1057C0000E945A1F0F900F900F900F900F900F9004
:1057D00086EA90E155D8C157DF4F0FB6F894DEBF87
:1057E0000FBECDBFDF91CF911F910F91FF90EF9032
:1057F00008952F923F924F925F926F927F928F9275
:105800009F92AF92BF92CF92DF92EF92FF920F934F
:105810001F93CF93DF9300D000D000D0CDB7DEB779
:105820008C017A836983FA01DB018C91807711F412
:1058300080E06DC3D8018C918111FACF41815281F2
:105840005D834C838081837009F4BDC0CA010C96CE
:105850006DE070E00E94415B6F5F6B832E831F01E0
:10586000E981FA81F987E887CF010E94E110812C54
:10587000912CC12CD12CE12CF12C1F825101F6E08E
:10588000AF0EB11CA885B98550964D905D906D9076
:105890007C90539745E076946794579447944A9543
:1058A000D1F75A82498261E0CD010E945F12FC016A
:1058B000892B09F08BC0E885F98581818111B8CFEA
:1058C000EE81E4FFB5CFE03109F4B2CFEE2011F064
:1058D00089829A82FB81EF1608F092C160E0888588
:1058E00099850E945F12892B09F065C1A885B98549
:1058F00011968C91612C32E0732E811199CFE8853D
:10590000F985808185FD94CF80899189A289B389A9
:1059100081159E4FAF41B10508F08ACF88859985E2
:105920000E945B0B882309F483CFA885B98516965E
:10593000ED91FC9117971C968D909D90AD90BC9029
:105940001F97B2E08B1A9108A108B108848104C0A6
:10595000880C991CAA1CBB1C8A95D2F78189928954
:10596000A389B489880E991EAA1EBB1E25E0B50125
:10597000A401CF0181960E94F9066C01009709F4F9
:1059800057CFFC01A301119241505040E1F7FF2491
:10599000F394A885B98516964D905C90F2018281AA
:1059A000F81608F00AC19601B501A4014F0D511D6A
:1059B000611D711D808191810E94AF06882309F4C9
:1059C00037CFF394E6CF51E05B8348CF2081253E6B
:1059D00011F021110EC0E11001C042014B81E4160B
:1059E00008F4E394222309F46BCF253E29F4F12C2B
:1059F00049CF5B81E51658F12E32C9F333853F302C
:105A000009F05BC0F11025C026FF3CCF2F71F22EAC
:105A1000C584D22E6D2D6150770BAB017DE0749F54
:105A20009001759F300D11248C819D8128173907B5
:105A3000F0F6712C94E0971598F0818192814C8159
:105A40005D8142175307A9F4892B89F61BCFE12CFE
:105A5000D3CFDA942D11CBCF25852C15D9F2C7CF12
:105A6000AAE0A71518F084819581E9CF86819781F6
:105A7000E6CF8F3F910511F008F0B9CF4FEB480FFB
:105A80004A3108F4805EB9016F5F7F4FD1011396F0
:105A90004D915C91240F351FD9019C912FEB290F5B
:105AA0002A3108F4905E9813A2CF73943296BDE029
:105AB0007B1609F4E7CE9B01BDCF33FD98CFFF20C5
:105AC00009F469C021E0D212B3CE9F01255F3F4F98
:105AD00090E090FB979597F98191980F2E173F07CB
